:020000040800F2
:1000000000C00020D97C0008E50D0008E70D0008BD
:10001000E90D0008EB0D0008ED0D000800000000E0
:10002000000000000000000000000000EF0D0008CC
:10003000F10D000800000000F30D0008F50D0008A8
:10004000297D0008297D0008297D0008297D0008F8
:10005000297D0008297D0008297D0008297D0008E8
:10006000297D0008297D0008297D0008297D0008D8
:10007000297D0008297D0008297D0008297D0008C8
:10008000297D0008297D0008297D0008297D0008B8
:10009000297D0008297D0008297D0008297D0008A8
:1000A000297D0008297D0008297D0008297D000898
:1000B000297D00080000000000000000297D0008E4
:1000C000297D0008297D0008297D0008297D000878
:1000D000297D0008297D0008297D0008297D000868
:1000E000297D0008297D00080000000000000000B4
:1000F0000000000000000000000000000000000000
:1001000000000000297D000800000000297D000893
:100110000000000000000000297D0008297D000883
:10012000297D0008297D0008297D0008297D000817
:10013000297D000800000000000000000000000011
:10014000297D00080D0E0008297D0008FD0D00081E
:10015000297D0008297D0008297D0008297D0008E7
:10016000297D0008297D0008297D00080000000085
:10017000297D0008297D0008297D00080000000075
:10018000297D0008297D0008297D00080000000065
:100190000348044B834202D0034B03B11847704716
:1001A0002001002020010020000000000548064B2F
:1001B0001B1AD90F01EBA301491002D0034B03B165
:1001C0001847704720010020200100200000000097
:1001D00010B5064C237843B9FFF7DAFF044B13B18F
:1001E0000448AFF300800123237010BD20010020DC
:1001F000000000002C7D000808B5044B1BB1044929
:100200000448AFF30080BDE80840CFE700000000DD
:10021000240100202C7D000870B50F4B0F4DAB4220
:10022000A3EB050607D0B610002455F8043B0134B3
:100230009847A642F9D807F079FD094D094B5E1B96
:10024000AB424FEAA60606D0002455F8043B013421
:100250009847A642F9D870BDF07D0008F07D0008EF
:10026000F07D0008F47D0008830730B547D0541EA8
:10027000002A3ED0CAB2034601E0013C39D303F85C
:10028000012B9D07F9D1032C2CD9CDB205EB052507
:100290000F2C05EB054535D9A4F1100222F00F0C07
:1002A00003F1100EE6444FEA121C1A46C2E900554B
:1002B000C2E9025510327245F8D10CF1010214F076
:1002C0000C0F03EB021204F00F0C13D0ACF104037B
:1002D00023F003030433134442F8045B9342FBD13D
:1002E0000CF003042CB1C9B21C4403F8011BA34257
:1002F000FBD130BD64461346002CF4D1F9E7034628
:100300001446C0E71A46A446E0E700BF53B94AB90D
:10031000002908BF00281CBF4FF0FF314FF0FF300D
:1003200000F06AB9ADF1080C6DE904CE00F006F8F2
:10033000DDF804E0DDE9022304B070472DE9F04761
:10034000089D0E4604460F46002B4AD194468C4524
:10035000B2FA82F260D942B1C2F12003974020FA8A
:1003600003F30CFA02FC1F4394404FEA1C4E1FFAA1
:100370008CF6B7FBFEF1230C0EFB117743EA074323
:1003800001FB06F098420AD91CEB030301F1FF3789
:1003900080F01581984240F21281023963441B1AA1
:1003A000A4B2B3FBFEF00EFB103344EA034400FB9F
:1003B00006F6A6420AD91CEB040400F1FF3380F0D4
:1003C0000081A64240F2FD806444023840EA0140C8
:1003D000A41B00211DB1D4400023C5E90043BDE8A2
:1003E000F0878B4205D90DB1C5E90001002108460F
:1003F000F5E7B3FA83F1002946D1B34202D3824232
:1004000000F2F580841A66EB030201201746002DE6
:10041000E5D0C5E90047E2E7002A40F09380A1EB70
:100420000C034FEA1C471FFA8CFE0121B3FBF7F6C1
:1004300007FB1630230C43EA00430EFB06F09842FC
:1004400008D91CEB030306F1FF3802D2984200F2F0
:10045000D08046461B1AA4B2B3FBF7F007FB10335B
:1004600044EA03440EFB00FEA64508D91CEB040435
:1004700000F1FF3302D2A64500F2B6801846A4EB85
:100480000E0440EA0640A5E7C1F120078B4022FA9E
:1004900007FC4CEA030C06FA01FE20FA07F426FAE0
:1004A00007F344EA0E0400FA01F84FEA1C404FEA51
:1004B0001449B3FBF0FE1FFA8CF600FB1E3349EA29
:1004C00003430EFB06F9994502FA01F20BD91CEB26
:1004D00003030EF1FF3A80F08580994540F2828057
:1004E000AEF1020E6344A3EB0909A4B2B9FBF0F329
:1004F00000FB139944EA094403FB06F6A64208D917
:100500001CEB040403F1FF3068D2A64266D9023B1B
:10051000644443EA0E40A41BA0FB02E6B4427346C7
:10052000B14652D34FD05DB1B8EB030264EB09047E
:1005300004FA07F722FA01F31F43CC40C5E900741F
:1005400000214CE7C2F1200120FA01F30CFA02FC71
:1005500026FA01F1964033434FEA1C471FFA8CFEFE
:10056000B1FBF7F007FB1016190C41EA064100FB3E
:100570000EF68E4204FA02F408D91CEB010100F1D8
:10058000FF382DD28E422BD902386144891B9BB291
:10059000B1FBF7F607FB161143EA014306FB0EF128
:1005A000994208D91CEB030306F1FF3814D2994293
:1005B00012D9023E63445B1A46EA004136E73946E7
:1005C000EDE6184602E7F045ADD2BEEB020366EB5E
:1005D0000C060138B146A6E74646ECE7034698E725
:1005E0004046D3E7D6467EE76444023847E70846EC
:1005F0000DE7023E63442DE7704700BF2DE9F04749
:100600008CB000240794089409940A940B945F4BCF
:10061000DA6C42F01002DA64DA6C02F01002019235
:10062000019ADA6C42F00402DA64DA6C02F0040235
:100630000292029ADA6C42F08002DA64DA6C02F01A
:1006400080020392039ADA6C42F00102DA64DA6CF7
:1006500002F001020492049ADA6C42F00202DA64B7
:10066000DA6C02F002020592059ADA6C42F0080296
:10067000DA64DB6C03F008030693069B444E2246C3
:1006800040F2DB31304604F0AFF9DFF80C9122463E
:1006900040F21571484604F0A7F9DFF800812246C0
:1006A0004FF4FA51404604F09FF922464FF480710E
:1006B0004FF0904004F098F9364F2246102138460A
:1006C00004F092F9042307934FF4881ACDF820A080
:1006D000099407A9304604F0A3F840F2DB330793EE
:1006E0000125089509940A9407A9304604F098F862
:1006F000202307930894099407A9304604F090F842
:1007000040F215730793089509940A9407A948467F
:1007100004F086F845F6820307930894099407A924
:10072000484604F07DF84FF4FA530793089509946E
:100730000A9407A9404604F073F8802307930894AD
:10074000099407A9404604F06BF84FF480730793AF
:10075000089509940A9407A94FF0904004F060F8B6
:1007600010230793089509940A9407A9384604F0C2
:1007700057F84FF400730793CDF820A0099407A908
:10078000384604F04DF80CB0BDE8F0870010024088
:100790000010004800040048000C00480008004811
:1007A0000268044B9A4200D07047034B01221A7032
:1007B000FAE700BF007C00403C01002072B6FEE773
:1007C00000B587B000230093019302930393049331
:1007D00005931848184A026043608360C360036150
:1007E00004224261037643760122C26180F8203000
:1007F0008362C36280F83030436380F8383004F09D
:100800002DFB90B90D4B0093062301930023029317
:100810007F2203920422049205936946054804F05E
:1008200001FC20B907B05DF804FBFFF7C7FFFFF735
:10083000C5FF00BF80050020000004500200300406
:1008400008B51148114B0360114B436000238360CE
:100850000122C260036143618361C361036204F0EA
:10086000C8F850B90021084804F027F938B9002128
:10087000054804F050F920B908BDFFF79FFFFFF7C6
:100880009DFFFFF79BFF00BF2C0500200054004098
:10089000875C800008B51148114B0360114B436021
:1008A000002383600122C260036143618361C361ED
:1008B000036204F09EF850B90021084804F0FDF8E6
:1008C00038B90021054804F026F920B908BDFFF722
:1008D00075FFFFF773FFFFF771FF00BFD80400201B
:1008E00000580040875C800008B50748074B03604C
:1008F0000023436040F6FF73C360836004F0AAFDE9
:1009000000B908BDFFF75AFFC804002000300040BE
:1009100008B50B480B4B03600B4B43604FF0805303
:1009200083600023C36003610C2242618361036220
:10093000436205F084FA00B908BDFFF73FFF00BF2E
:1009400008040020008000402433030008B50B4851
:100950000B4B03604FF4E133436000238360C360BB
:1009600003610C2242618361C3610362436205F04B
:1009700066FA00B908BDFFF721FF00BF8003002021
:100980000038014008B50B480B4B03604FF4E133CE
:10099000436000238360C36003610C224261836172
:1009A000C3610362436205F04AFA00B908BDFFF76C
:1009B00005FF00BFF80200200044004008B50A48C7
:1009C0000A4B0360FF234360012282600023C3605F
:1009D000026143618361C361036205F08DFA00B96E
:1009E00008BDFFF7EBFE00BFAC020020001000A026
:1009F00008B50948094B0360002343607F228260E9
:100A0000FF22C260036143618361C36105F02EFB75
:100A100000B908BDFFF7D2FE880200200028004080
:100A200008B50F480F4B03604FF4827343600023F7
:100A300083604FF44072C260036143614FF40072FF
:100A40008261C3610362436283620722C2620363FD
:100A50000823436305F05DFB00B908BDFFF7AEFE58
:100A6000240200200030014000B58FB000230A931B
:100A70000B930C930D9307930893099300930193A1
:100A80000293039304930593069327484FF0804203
:100A90000260436083604FF0FF32C2600361836194
:100AA00005F092FD002830D14FF480530A930AA933
:100AB0001D4805F09FFF50BB1B4805F0B5FD40BB2E
:100AC00000230793099307A9174806F013F810BBF2
:100AD0006023009300220192029204926946124818
:100AE00005F03EFEC8B9042269460F4805F038FEFD
:100AF000A8B9082269460C4805F032FE88B90A48B0
:100B000000F080FC0FB05DF804FBFFF757FEFFF725
:100B100055FEFFF753FEFFF751FEFFF74FFEFFF7BD
:100B20004DFEFFF74BFE00BFD801002000B589B095
:100B30000023059306930793019302930393049371
:100B40001448154A0260436083604FF6FF72C2602A
:100B500003614361836105F097FDA8B90023059304
:100B6000079305A90B4805F0C5FF78B9002201924B
:100B7000012302930392049201A9064805F0C6FEE0
:100B800030B909B05DF804FBFFF718FEFFF716FE59
:100B9000FFF714FE8C0100200040014010B592B018
:100BA00000240B940C940D940E940F9410941194B3
:100BB0002C2221466846FFF757FB1E481E4B036058
:100BC000446084604FF6FF73C360046144618461D4
:100BD00005F0FAFC28BB174805F026FD18BB60237A
:100BE0000B9300220C920D920E920F921092119282
:100BF0000BA9104805F0B4FDB8B900230093019388
:100C00000293039304934FF4005205920A936946AA
:100C1000084805F0A7FF50B9064800F0F3FB12B0F2
:100C200010BDFFF7CBFDFFF7C9FDFFF7C7FDFFF7CD
:100C3000C5FD00BF400100200044014008B50B483D
:100C40000B4B0360002343604FF4606282604FF6F9
:100C5000FF724261036243628362C362036304F012
:100C60004DFC00B908BDFFF7A9FD00BF90040020AE
:100C7000007C004000B597B04422002105A8FFF792
:100C8000F3FA0023009301930293039304934FF428
:100C9000007003F09BFF50BB2A2305934FF4807331
:100CA000089301230E93102209920A9302230F93B3
:100CB00010930423119330231293072313930623D5
:100CC00014930823159305A802F01CFF88B90F237D
:100CD00000930323019300230293039304930121C0
:100CE000684603F045FA30B917B05DF804FBFFF72A
:100CF00065FDFFF763FDFFF761FD000010B502F031
:100D00001BFEFFF7B7FFFFF779FCFFF759FDFFF771
:100D100097FDFFF7BFFDFFF7E7FDFFF7F9FDFFF7D1
:100D200015FEFFF72FFEFFF749FEFFF761FEFFF705
:100D300077FEFFF799FEFFF7F9FEFFF72FFF00F0B0
:100D4000D1FB00F0DDFBFFF779FF012003F0BEFFD0
:100D50004FF4967002F012FE4FF4FA6002F00EFEAD
:100D600006E0FFF72BFD02F024FE1A4804F0A6FD72
:100D700001224FF40071184803F036FE02F0F8FD2E
:100D800004460D21154800F0ADFC012804D102F005
:100D9000EFFD001B6328F4D9322002F0EFFD0022A2
:100DA0004FF400710C4803F01FFE0D4B00221A7027
:100DB00040F6C311074804F02BFD0028D1D102F002
:100DC000F1FD074B1B78002BCDD10121002003F052
:100DD000CFFEF6E79004002000080048487D000898
:100DE0003C010020FEE7FEE7FEE7FEE7FEE7704776
:100DF0007047704708B502F0AFFD08BD08B502485E
:100E000001F000FC08BD00BFE814002008B502484E
:100E100004F0D8FB08BD00BF9004002082B00A4B4C
:100E20001A6E42F001021A661A6E02F00102009276
:100E3000009A9A6D42F080529A659B6D03F0805340
:100E40000193019B02B070470010024030B5A1B081
:100E5000044600211B911C911D911E911F9160223F
:100E600003A8FFF701FA2268274B9A4201D021B06C
:100E700030BD4FF4804303934FF080531893022307
:100E80000493042305931E220692072207920893D7
:100E900009934FF080730A9303A803F00FFB002817
:100EA0002FD11A4BDA6C42F40052DA64DA6C02F495
:100EB00000520092009ADA6C42F00402DA64DA6CB2
:100EC00002F004020192019ADA6C42F00102DA6443
:100ED000DB6C03F001030293029B17231B930B258A
:100EE0001C9500241D941BA9094803F099FC30238C
:100EF0001B931C951D941BA94FF0904003F090FC90
:100F0000B5E7FFF75BFCCCE700000450001002409F
:100F10000008004810B5A2B0044600211D911E91A2
:100F20001F9120912191602205A8FFF79DF9236868
:100F30002F4A934204D02F4A93422CD022B010BDA6
:100F40004023059305A803F0B9FA08BB2A4CE36CCB
:100F500043F00203E364E36C03F002030193019B9B
:100F6000C0231D9312231E9300231F93032320935A
:100F7000042321931DA9214803F052FCA36D43F4DF
:100F80000013A365A36D03F400130293029BD5E73E
:100F9000FFF714FCDAE78023059305A803F08EFA27
:100FA00010BB154CE36C43F00203E364E36C03F005
:100FB00002030393039B4FF420531D9312231E93AC
:100FC00000231F9303232093042321931DA90B487F
:100FD00003F026FCA36D43F48003A365A36D03F423
:100FE00080030493049BA9E7FFF7E8FBD9E700BF60
:100FF0000054004000580040001002400004004827
:1010000010B5B2B00446602200211AA8FFF72CF9EF
:1010100022681A4B9A4201D032B010BD4FF40073CF
:101020001A931AA803F04AFA08BB154B9A6D42F0BE
:1010300000429A659B6D03F000430193019B60227F
:10104000002102A8FFF710F94FF4007302934FF448
:101050008023119302A803F031FA58B900221146F7
:10106000412003F0A5FE412003F0B2FED4E7FFF7D4
:10107000A5FBDAE7FFF7A2FBF0E700BF007C00402A
:101080000010024010B5A4B0044600211F91209129
:10109000219122912391602207A8FFF7E5F82368A8
:1010A000474A934207D0474A934230D0464A934238
:1010B0005AD024B010BD2023079307A803F0FEF9EF
:1010C00010BB424BDA6D42F00102DA65DA6D02F0D4
:1010D00001020192019ADA6C42F00102DA64DB6CDF
:1010E00003F001030293029B0C231F93022320931E
:1010F0000023219303232293082323931FA94FF056
:10110000904003F08DFBD4E7FFF758FBD9E70123AC
:10111000079307A803F0D2F918BB2C4B1A6E42F4C0
:1011200080421A661A6E02F480420392039ADA6CC5
:1011300042F00102DA64DB6C03F001030493049BC8
:101140004FF4C0631F9302232093002321930323B2
:101150002293072323931FA94FF0904003F060FBD5
:10116000A7E7FFF72BFBD8E70223079307A803F0B5
:10117000A5F908BB154B9A6D42F400329A659A6D39
:1011800002F400320592059ADA6C42F00802DA6441
:10119000DB6C03F008030693069B60231F93022376
:1011A00020930023219303232293072323931FA932
:1011B000074803F035FB7CE7FFF700FBDAE700BFE9
:1011C0000080004000380140004400400010024010
:1011D000000C0048F0B58BB00023059306930793ED
:1011E000089309930268284B9A4201D00BB0F0BDD6
:1011F00003F1204303F500331A6D42F480721A653F
:101200001A6D02F480720192019ADA6C42F00102C6
:10121000DA64DA6C02F001020292029ADA6C42F0AD
:101220000202DA64DA6C02F002020392039ADA6CC8
:1012300042F01002DA64DB6C03F010030493049BA9
:10124000C023059302260696032408940A250995CF
:1012500005A94FF0904003F0E3FA059406960027A5
:1012600007970894099505A9084803F0D9FA4FF49F
:1012700040630593069607970894099505A90448C5
:1012800003F0CEFAB2E700BF001000A0000400484F
:101290000010004810B598B004466022002168464E
:1012A000FEF7E2FF22680D4B9A4201D018B010BD44
:1012B0004FF4003300934FF400731793684603F024
:1012C000FDF838B9064AD2F8903043F40043C2F82A
:1012D0009030EBE7FFF772FAF4E700BF0028004018
:1012E0000010024000B589B00023039304930593D6
:1012F000069307930268144B9A4202D009B05DF836
:1013000004FB03F560431A6E42F480521A661A6EAB
:1013100002F480520192019ADA6C42F01002DA640F
:10132000DB6C03F010030293029B4FF460430393C2
:1013300002230493032306930523079303A9034879
:1013400003F06EFADAE700BF0030014000100048F9
:1013500082B00368B3F1804F04D00E4A93420DD09F
:1013600002B0704703F504339A6D42F001029A65AA
:101370009B6D03F001030093009BF1E7064B1A6E8F
:1013800042F400321A661B6E03F400330193019B92
:10139000E6E700BF004401400010024000B589B0FC
:1013A0000023039304930593069307930268134B5A
:1013B0009A4202D009B05DF804FB03F550431A6E5F
:1013C00042F480321A661A6E02F480320192019A57
:1013D000DA6C42F00202DA64DB6C03F0020302937F
:1013E000029B4FF480430393022304930E2307933D
:1013F00003A9034803F014FADCE700BF00400140F2
:101400000004004830B589B000230393049305938A
:10141000069307930368B3F1804F04D0234A9342A5
:101420002ED009B030BD03F50433DA6C42F001026E
:10143000DA64DA6C02F001020092009ADA6C42F08F
:101440000202DA64DB6C03F002030193019B48F2B1
:1014500002030393022504950124079403A94FF086
:10146000904003F0DDF94FF480630393049500236B
:1014700005930693079403A90D4803F0D1F9D0E72B
:101480000C4BDA6C42F00202DA64DB6C03F002030C
:101490000293029B4FF480730393022304930E2361
:1014A000079303A9024803F0BBF9BAE700440140DF
:1014B0000004004800100240024B01221A70187804
:1014C000704700BF14000020024B01221A701878E8
:1014D000704700BF140000200020704700207047B4
:1014E0000120704708B50349034805F0B3FB034BDF
:1014F000187008BDE405002000000020E805002069
:1015000008B500220F49104805F0A9FB70B90F4932
:101510000D4805F0BBFB60B90D490B4806F080FB98
:1015200050B9094805F0CCFB48B908BDFFF746F9AA
:10153000EDE7FFF743F9EFE7FFF740F9F1E7FFF7D2
:101540003DF9F2E758000020EC050020DC00002007
:101550007800002012230B800048704744000020D0
:1015600004230B8000487047340000200C230B80BC
:101570000048704738000020002393421ED200B577
:1015800010E00CF1370C01F813C000014FEA430CD6
:101590000CF1010C4FF0000E01F80CE00133DBB24E
:1015A000934209D24FEA107CB0F1204FE9D20CF1FE
:1015B000300C01F813C0E8E75DF804FB7047000049
:1015C00038B50B4BD3F89005D3F89445D3F898353C
:1015D000C01800D138BD074D08222946FFF7CCFFBF
:1015E000042205F110012046FFF7C6FFF2E700BF15
:1015F0000070FF1F1A00002008B51A230B80FFF7A8
:10160000DFFF014808BD00BF1800002008B50A46EA
:1016100028B90549054806F079F8034808BD02498C
:10162000024806F073F8F8E7C8080020587D000863
:1016300010B50A46034C2146034806F067F82046D9
:1016400010BD00BFC8080020707D000808B50A461C
:1016500028B90549054806F059F8034808BD02496C
:10166000024806F053F8F8E7C8080020847D000817
:1016700008B50A4628B90549054806F047F8034861
:1016800008BD0249024806F041F8F8E7C808002002
:10169000907D0008002070470020704700207047B0
:1016A00010B50146044C204606F0D3FA204606F059
:1016B000F7FA002010BD00BFEC05002010B5064C65
:1016C00000220649204606F0B6FA0549204606F0F3
:1016D000C0FA002010BD00BFEC050020C80A0020A1
:1016E000C80E0020094BD3F8BC32D3F814320BB12A
:1016F0000120704710B5054C0A460146204606F009
:101700009AFA204606F0B1FA10BD00BFEC050020A1
:1017100008B5FFF7AFFA08BD10B59AB004466022CD
:10172000002102A8FEF7A0FD2268114B9A4201D0C9
:101730001AB010BD4FF40053029302A802F0BEFE8F
:1017400090B90C4B9A6D42F080629A659B6D03F0E4
:1017500080630193019B00221146432003F028FB84
:10176000432003F035FBE3E7FFF728F8E9E700BF84
:10177000006800400010024008B500F52671D0F85E
:10178000DC0205F0B3FA08BD08B501EB810300EBFC
:10179000C303D3F86421D0F8DC0205F03AFB08BD9E
:1017A00008B501EB810300EBC3035A6AD0F8DC02F1
:1017B00005F094FB08BD08B5D0F8DC0205F014FB79
:1017C00008BD10B504468379022B09D10121D4F854
:1017D000DC0205F0EAFAD4F8DC0205F0B3FA10BD39
:1017E000FEF7ECFFF2E7000010B50446D0F8DC028B
:1017F00005F0DEFAA37A23B1024A136943F0060327
:10180000136110BD00ED00E010B50446837A23B9E2
:10181000D4F8DC0205F0DBFA10BD044A136923F0AA
:1018200006031361FFF774FFF2E700BF00ED00E06D
:1018300010B5044603F012FA1E48C0F8DC42C4F8A2
:10184000C8021D4B036008230371022383710372D6
:10185000002343728372C372037300F07AF930BBC2
:10186000182300221146D4F8C80201F0E8F85823E2
:1018700000228021D4F8C80201F0E1F8C023002240
:101880008121D4F8C80201F0DAF84FF488730022FD
:101890000121D4F8C80201F0D2F84FF4807300227D
:1018A0008221D4F8C80201F0CAF8002010BDFEF76A
:1018B00085FFD5E7E81400200068004008B5D0F89F
:1018C000C80200F0C1F9032805D8DFE800F00304DE
:1018D0000203012008BD0320FCE708B594461A4620
:1018E0006346D0F8C80200F066FF032805D8DFE899
:1018F00000F003040203012008BD0320FCE708B543
:10190000D0F8C80200F09AFF032805D8DFE800F0FD
:1019100003040203012008BD0320FCE708B5D0F84A
:10192000C80201F00DF8032805D8DFE800F0030431
:101930000203012008BD0320FCE708B5D0F8C80267
:1019400001F03EF8032805D8DFE800F003040203A5
:10195000012008BD0320FCE7D0F8C83211F0800F49
:1019600008D101F07F0101EB810103EBC10393F882
:101970005201704701F07F0101EB810103EBC103CC
:10198000987C704708B5D0F8C80200F028FE0328FC
:1019900005D8DFE800F003040203012008BD03209E
:1019A000FCE708B5D0F8C80200F0A4FF032805D86A
:1019B000DFE800F003040203012008BD0320FCE778
:1019C00008B5D0F8C80200F06FFF032805D8DFE89B
:1019D00000F003040203012008BD0320FCE708B562
:1019E000D0F8C80200F07DFF08BD000010B5044625
:1019F00069B1012911D1D0F8DC0205F0D9F9A37A37
:101A00005BB10A4A136943F00603136105E0837A68
:101A100023B9D4F8DC0205F0DAF910BDFFF778FE3F
:101A2000024A136923F006031361F2E700ED00E0B8
:101A300000487047C8120020704738B512F4804F34
:101A400043D00468B4F8503091F800C04FEACC0E8F
:101A50001EFA83F32344B3F80244C4F309048B69E8
:101A6000A34228D31B1B8B618B697BB9056835F8B2
:101A70002C309BB223F4804323F0700383F4005393
:101A800043F4004343F0800325F82C3012F0400F5C
:101A90000ED002680D7832F825309BB223F4E04373
:101AA00023F0700343F4004343F0C00322F82530D1
:101AB00024B9204638BD00238B61D5E723460A8927
:101AC0004969006801F0F8FEF3E70468B4F85030A3
:101AD00091F800C04FEACC0E1EFA83F32344B3F80A
:101AE0000644C4F309048B69A3422FD31B1B8B61EB
:101AF0008B697BB9056835F82C309BB223F48043A1
:101B000023F0700383F4005343F4004343F0800355
:101B100025F82C3012F0400F0FD1026891F800C068
:101B200032F82C309BB223F4E04323F0700343F4EB
:101B3000004343F0C00322F82C30002CB9D02346D8
:101B40004A894969006801F0B7FEB2E700238B615A
:101B5000CEE738B5002875D0044690F89132A3B18D
:101B6000032384F8913200236371206800F0A9FFF9
:101B7000234653F8040B0ECB00F093FF50B1022321
:101B800084F891320125284638BD80F89032FFF75D
:101B9000C3FDE5E70021206800F09DFF034608B97A
:101BA000024615E0022384F891320125EBE702EBAF
:101BB000820104EBC101012048740A740020C8743A
:101BC00008624862013202EB8201C9006050D2B261
:101BD00020799042EBD816E003EB830204EBC202BB
:101BE000002182F8511182F8503182F85311C2F865
:101BF0006011C2F8641103EB830204EBC202C2F865
:101C000068110133DBB29842E6D8234653F8040B3F
:101C10000ECB00F062FF054658B900236373012321
:101C200084F89132E37A012B08D0206801F062FB3E
:101C3000A9E7022384F891320125A4E7204600F0A9
:101C40001AFFF2E701259EE790F89032012B0ED0A3
:101C500010B50446012380F89032006800F028FF98
:101C6000206801F03CFB002084F8900210BD0220A7
:101C7000704770B505460C46164612F0400F00F04E
:101C800020810268B2F8503009784FEAC10C1CFA82
:101C900083F31344B3F80224C2F30902A369934205
:101CA0002CD99B1AA361A06958B316F4804F0DD0AC
:101CB000286830F821309BB223F4E04323F070030E
:101CC00043F4404343F0800320F8213094F824305B
:101CD000012B00F08D802A68217832F821309BB2E8
:101CE00023F4E04323F0400383F0300343F4004344
:101CF00043F0800322F82130002070BD0023A3614F
:101D0000D1E76378002B48D12A68B2F8503012FA34
:101D100083F36344B3F80224C2F30902A3F8022454
:101D2000B3F802246FEA42426FEA524292B2A3F839
:101D300002242A686378002B3BD1B2F8503012FAA3
:101D400083F3227803EBC203B3F80624C2F309023B
:101D5000A3F80624B3F806246FEA42426FEA52421F
:101D600092B2A3F80624E378022B2FD021782846DC
:101D7000FFF716FD16F4804FBED02A68217832F89E
:101D800021309BB223F4E04323F0700343F440433B
:101D900043F0800322F82130AEE7012BC9D12A6835
:101DA000B2F8503012FA83F363440022A3F80224FD
:101DB000BFE7012BD7D1B2F8503012FA83F3227863
:101DC00003EBC2030022A3F80624CCE72A6821789B
:101DD00032F821309BB223F4E04323F0400383F038
:101DE000200343F4004343F0800322F82130BDE791
:101DF000636913446361E3691344E361216A2369FE
:101E000099421DD3C91A21626278002A44D12968F7
:101E1000B1F8502011FA82F2217802EBC102B2F837
:101E20000214C1F30901A2F80214ABB9B2F802140A
:101E30006FEA41416FEA514189B2A2F802142DE0E4
:101E400021B9002384F824301346DDE7002384F809
:101E5000243023620B46D7E73E2B0DD8590813F0E8
:101E6000010F00D00131B2F8020480B2890289B2B8
:101E70000143A2F8021411E0580913F01F0F00D11A
:101E80000138B2F8021489B2800280B2014341F4F1
:101E90000041A2F8021401E0012A06D09BB2228977
:101EA0006169286801F034FA15E72968B1F8502013
:101EB00011FA82F2217802EBC10299B2A2F802145F
:101EC000ECE70268B2F850300978C80010FA83F3E2
:101ED0001344B3F80624C2F30902A369934246D31C
:101EE0009B1AA361A369002B44D016F4804F0DD137
:101EF000286830F821309BB223F4E04323F07003CC
:101F000043F4404343F0800320F8213094F8243018
:101F1000012B7FF4E0AE636913446361E36913440A
:101F2000E361216A23699942C0F09C80C91A216249
:101F300029686278002A40F0C180B1F8502011FA77
:101F400082F2217802EBC102B2F80614C1F3090152
:101F5000A2F80614002B40F09180B2F806146FEA44
:101F600041416FEA514189B2A2F80614A8E000236A
:101F7000A361B7E76378002B49D12A68B2F85030E3
:101F800012FA83F30344B3F80224C2F30902A3F85C
:101F90000224B3F802246FEA42426FEA524292B23C
:101FA000A3F802242A686378002B3CD1B2F85030A1
:101FB00012FA83F3227803EBC203B3F80624C2F3C8
:101FC0000902A3F80624B3F806246FEA42426FEA36
:101FD000524292B2A3F80624E378022B30D0217843
:101FE0002846FFF7DDFB16F4804F7FF485AE2A68A4
:101FF000217832F821309BB223F4E04323F07003C0
:1020000043F4404343F0800322F8213074E6012B6F
:10201000C8D12A68B2F8503012FA83F30344002280
:10202000A3F80224BEE7012BD6D1B2F8503012FA41
:1020300083F3227803EBC2030022A3F80624CBE744
:102040002A68217832F821309BB223F4E04323F050
:10205000400383F0200343F4004343F0800322F85D
:102060002130BCE721B9002384F8243013465FE710
:102070000023236284F824300B4659E73E2B0DD809
:10208000590813F0010F00D00131B2F8060480B2F4
:10209000890289B20143A2F8061411E0580913F02D
:1020A0001F0F00D10138B2F8061489B2800280B245
:1020B000014341F40041A2F8061401E0012A06D0D0
:1020C0009BB262896169286801F022F903E6B1F8E0
:1020D000502011FA82F2217802EBC10299B2A2F8E3
:1020E0000614EDE72DE9F041054652E003889BB266
:1020F00023F4E14323F070036FEA43436FEA534351
:102100009BB203802968B1F850302A7CD20012FAC1
:1021100083F30B44B3F80234C3F30903EB626A6A36
:102120001A446A6200212846FFF73AFB6B7B83B3AF
:10213000AB6A73BB6B7B2A6843F08003A2F84C3018
:1021400000236B7325E003889BB223F4804323F0C4
:10215000700383F4805348F280010B4303802A68A4
:1021600013889BB223F4E04323F0400383F0100371
:102170000B4313802A68138823F070031B051B0D83
:1021800043F0800313800020BDE8F08112F4004F7B
:1021900036D12868B0F8443013F4004FF3D0B0F8CB
:1021A0004440A3B214F00F0464D113F0100F9DD07B
:1021B00003889AB213F4006FE8D0B0F8503095F865
:1021C0005021D20012FA83F30344B3F80634C3F368
:1021D0000903C5F86C31082BB5D1B5F8562105F5C2
:1021E000267101F069FB2A68138823F070031B0530
:1021F0001B0D43F0800313802846FFF7BDFAC8E7A4
:10220000038823F070031B051B0D43F0800303803C
:102210002868B0F8503095F85021D20012FA83F3B4
:102220000344B3F80634C3F30903C5F86C316BB942
:1022300003889BB223F4804323F0700383F440535C
:1022400043F4004343F080030380A2E7D5F8641110
:1022500000299ED0B5F8562101F02EFBD5F8643147
:10226000D5F86C211344C5F8643100212846FFF7E6
:102270008BFA8EE730F824309EB213F4004F4DD124
:1022800016F0800F85D004EB8401C9001031294479
:102290002A6832F824309BB223F4E14323F0700320
:1022A0006FEA43436FEA53439BB222F8243004EBB6
:1022B000840305EBC303DB7C012B00F0F08016F4F4
:1022C000807F40F087812868B0F8503004EB8402AA
:1022D00005EBC202167CF20012FA83F30344B3F852
:1022E0000234C3F30903621C02EB820255F8322068
:1022F0009A4240F25281671C07EB8707D21A45F8D1
:102300003720621C02EB820255F83220002A40F08E
:102310004B8131462846FFF743FA3AE730F824303C
:1023200023F070031B051B0D43F0800320F82430BD
:1023300004EB8401C90001F5A87105EB010804EB69
:10234000840305EBC30393F85C31DBBB2868B0F86A
:10235000503004EB840205EBC20292F85021D20007
:1023600012FA83F30344B3F80674C7F30907EFB90D
:1023700004EB840305EBC303D3F86C213A44C3F8A0
:102380006C21D3F868313BB104EB840305EBC30344
:10239000D3F860319F4270D204EB840305EBC30392
:1023A00093F850112846FFF7EFF969E704EB840131
:1023B00005EBC1013B46B1F85621D1F8641101F09B
:1023C0007BFAD5E704EB840305EBC30393F85331A1
:1023D000022B33D0296804EB840205EBC20292F889
:1023E000500131F820309BB223F4E04323F0700316
:1023F00043F4004343F0C00321F82030286892F8EA
:10240000503130F8232012F4804F1ED0B0F8502005
:10241000DB0013FA82F30344B3F80274C7F309072D
:10242000002FA5D004EB840105EBC1013B46B1F8B8
:102430005821D1F8641101F03FFA99E7324641463C
:102440002846FFF7FAFA074692E7B0F85020DB007B
:1024500013FA82F30344B3F80674C7F30907002F95
:1024600086D004EB840105EBC1013B46B1F85A214B
:10247000D1F8641101F020FA7AE704EB840305EB4C
:10248000C303D3F8642104EB840305EBC3033A448C
:10249000C3F864214146286800F04CFFF0E6631C55
:1024A00003EB8303DB000022EA5004EB840305EB1B
:1024B000C3031B7F1BB316F0400F3BD004EB840318
:1024C00005EBC3035B7C1BBB2A68B2F8503012FAE1
:1024D00083F304EB840205EBC202127C03EBC2031C
:1024E000B3F80224C2F30902A3F80224B3F80224C9
:1024F0006FEA42426FEA524292B2A3F8022404EB1E
:10250000840405EBC404217C2846FFF749F940E622
:10251000012BF4D12A68B2F8503012FA83F304EB9D
:10252000840205EBC202127C03EBC2030022A3F873
:102530000224E4E72A6804EB840305EBC3035B7C15
:10254000D3B9B2F8503012FA83F304EB840205EBEE
:10255000C202127C03EBC203B3F80624C2F30902E1
:10256000A3F80624B3F806246FEA42426FEA524207
:1025700092B2A3F80624C2E7012BC0D1B2F85030C2
:1025800012FA83F304EB840205EBC202127C03EB24
:10259000C2030022A3F80624B1E7621C02EB820208
:1025A000D2000027AF50ACE604EB840205EBC20278
:1025B000566A1E445662013404EB840205EBC202E3
:1025C000526804EB840405EBC4041344636000F018
:1025D000B1FEDEE532462846FFF74BFBD9E590F821
:1025E0009032012B0CD010B50446012380F89032B4
:1025F0004173006800F06DFE002084F8900210BD69
:102600000220704710B50446006800F07BFE10F40D
:10261000004F23D110F4806F24D110F4804F32D1B9
:1026200010F4005F39D110F4805F40D110F4006FD6
:1026300067D110F0800F40F0818010F4007F40F0EF
:10264000AD8010F4807F27D02268B2F844309BB26E
:1026500023F480739BB2A2F844301DE02046FFF7BC
:1026600041FD19E02268B2F844309BB223F4806344
:102670009BB2A2F844302046FFF7A3F80021204681
:10268000FFF7ADFF08E02268B2F844309BB223F4B4
:1026900080439BB2A2F8443010BD2268B2F84430A7
:1026A0009BB223F400539BB2A2F84430F4E72268B3
:1026B000B2F840309BB223F004039BB2A2F8403042
:1026C0002268B2F840309BB223F008039BB2A2F814
:1026D000403094F8C832012B0CD02046FFF794F814
:1026E0002268B2F844309BB223F480539BB2A2F824
:1026F0004430D1E7002184F8C8122046FFF776F96C
:10270000EBE72268B2F840309BB243F00803A2F82E
:1027100040302268B2F844309BB223F400639BB28D
:10272000A2F844302268B2F840309BB243F0040370
:10273000A2F840302046FFF757F8ADE72268B2F81C
:1027400044309BB223F080039BB2A2F8443094F84B
:10275000C832FBB92268B2F840309BB243F00403A0
:10276000A2F840302268B2F840309BB243F0080330
:10277000A2F84030012184F8C8122368B3F854301D
:10278000C3F38D0303F03C03C4F8CC322046FFF7BB
:102790002DF981E72046FFF727F87DE72268B2F898
:1027A00044309BB223F400739BB2A2F8443020461D
:1027B000FFF701F870E710B50446084611F0800FE6
:1027C00027D101F0070C0CEB8C01C90001F5A87EA4
:1027D00004EB0E010CEB8C0C04EBCC0C4FF0000E58
:1027E0008CF851E100F007000870C2F30A020A6198
:1027F000CB70022B1DD094F89032012B1CD00123FA
:1028000084F89032206800F079F9002084F8900272
:1028100010BD01F0070C0CEB8C01C90010312144F4
:102820000CEB8C0C04EBCC0C4FF0010E8CF811E08F
:10283000D8E700230B71DEE70220E9E710B5044674
:102840000A4611F0800F1FD101F0070000EB800352
:10285000DB0003F5A873E11800EB800004EBC00077
:10286000002380F8513102F007020A7094F8903288
:10287000012B17D0012384F89032206800F0CBFBA5
:10288000002084F8900210BD01F0070000EB8003E7
:10289000DB001033E11800EB800004EBC0000123E3
:1028A0004374E0E70220EEE710B501F0070C0CEBF3
:1028B0008C01C90001F5A8710CEB8C0E00EBCE0E5B
:1028C000CEF86421CEF868310024CEF86C418EF841
:1028D00051418EF850C10144006800F02BFD2046A4
:1028E00010BD01F0070101EB810100EBC100D0F840
:1028F0006C01704738B501F0070C0CEB8C01C90076
:1029000010310CEB8C0E00EBCE0ECEF824200CF127
:10291000010202EB820440F8343001258EF8345075
:10292000CEF8303000EBC402002454608EF8115011
:102930008EF810C00144006800F0FCFC204638BD51
:1029400038B501F007050279AA4235D304460B4693
:1029500011F0800F1ED101EB8101C90001F5A871B2
:10296000014403EB830300EBC303002283F85121EE
:1029700001238B700D7094F89032012B1ED001232F
:1029800084F89032206800F031FC7DB1002084F89A
:10299000900238BD05EB8501C9001031014405EBFB
:1029A000850300EBC30301225A74E1E704F52671A5
:1029B000206800F0ABFCE9E70120EAE70220E8E745
:1029C0000B46017903F00F02914234D310B504464F
:1029D00013F0800F21D103F0070202EB8201C9003E
:1029E00001F5A871014402EB820200EBC202002053
:1029F00082F8510100228A7003F007030B7094F8EB
:102A00009032012B19D0012384F89032206800F015
:102A100012FC002084F8900210BD03F0070202EBC4
:102A20008201C9001031014402EB820200EBC202B4
:102A300001205074DEE7012070470220ECE711F01E
:102A4000800F0BD001F0070101EB8101C9001031AB
:102A5000084452B90273C3800020704701EB810122
:102A6000C90001F5A8710844F3E70122027303814C
:102A70001B0C4381F0E7034602680121C0F8D41221
:102A8000002083F8C802B2F854309BB20B43A2F87E
:102A90005430B2F854309BB243F00203A2F85430E1
:102AA000704784B004A800E90E00002004B070470D
:102AB00003460020A3F844004BF68072A3F84020A0
:102AC0007047B0F8403023F47E535B045B0CA0F8F1
:102AD0004030002070470020704784B0844604A82E
:102AE00000E90E000123ACF840300020ACF84000B3
:102AF000ACF84400ACF8500004B0704710B5034681
:102B000091F800C030F82C2092B222F4EC4222F06E
:102B1000700292B2C878032861D8DFE800F0555CF3
:102B20000258002048F2800E42EA0E0223F82C20C0
:102B300091F800C033F82C2092B222F4E04222F047
:102B400070024CEA020242EA0E0223F82C200A7BB1
:102B5000002A40F0DC804A78002A51D0B3F8502097
:102B600013FA82F20C7802EBC402B1F806C04FEA05
:102B70005C0C4FEA4C0CA2F800C40C7833F824200B
:102B800012F0400F0CD033F8242092B222F4E0422D
:102B900022F0700242F4004242F0C00223F82420E6
:102BA000CA78012A1DD0097833F8212092B222F484
:102BB000E04222F0400282F0200242F4004242F061
:102BC000800223F82120C3E142F40072AAE742F414
:102BD000C0620020A6E742F480620020A2E7012044
:102BE000A0E7097833F8212092B222F4E04222F0E3
:102BF000400242F4004242F0800223F82120A7E183
:102C0000B3F8502013FA82F20C7802EBC402B1F848
:102C100006C04FEA5C0C4FEA4C0CA2F804C4B3F8AF
:102C2000502013FA82F20C7802EBC402B2F806C408
:102C3000CCF3090CA2F806C40C6974BBB2F806C444
:102C40006FEA4C4C6FEA5C4C1FFA8CFCA2F806C48D
:102C50000C7833F8242012F4804F0CD033F8242061
:102C600092B222F4E04222F0700242F4404242F07A
:102C7000800223F824200978C9BB33F8212092B2BE
:102C800022F4804222F0700282F4405242F4004268
:102C900042F0800223F821205AE13E2C12D84FEA5C
:102CA000540C14F0010F01D00CF1010CB2F80644E1
:102CB000A4B24FEA8C2C1FFA8CFC44EA0C04A2F854
:102CC0000644C5E74FEA541C14F01F0F01D10CF164
:102CD000FF3CB2F80644A4B24FEA8C2C1FFA8CFCDD
:102CE00044EA0C0444F40044A2F80644B0E733F884
:102CF000212092B222F4804222F0700282F400522B
:102D000042F4004242F0800223F8212020E1CA78F8
:102D1000022A74D091F800C033F82C2092B222F429
:102D2000E24222F0700242F4004242F0800223F8B4
:102D30002C20B3F8502013FA82F291F800C002EB75
:102D4000CC02B1F808C04FEA5C0C4FEA4C0CA2F878
:102D500000C4B3F8502013FA82F291F800C002EBDD
:102D6000CC02B1F80AC04FEA5C0C4FEA4C0CA2F856
:102D700004C44A78002A40F0F7800C7833F8242005
:102D800012F4804F0CD033F8242092B222F4E042A7
:102D900022F0700242F4404242F0800223F82420E4
:102DA0000C7833F8242012F0400F0CD033F8242094
:102DB00092B222F4E04222F0700242F4004242F069
:102DC000C00223F824204A78002A51D1B3F85020B9
:102DD00013FA82F20C7802EBC402B2F80244C4F394
:102DE0000904A2F802440C69C4B9B2F802446FEABB
:102DF00044446FEA5444A4B2A2F802443AE00C7886
:102E000033F8242092B222F4E04222F0700242F41D
:102E1000014242F0800223F824208AE73E2C12D897
:102E20004FEA540C14F0010F01D00CF1010CB2F870
:102E30000244A4B24FEA8C2C1FFA8CFC44EA0C0426
:102E4000A2F8024416E04FEA541C14F01F0F01D1FF
:102E50000CF1FF3CB2F80244A4B24FEA8C2C1FFAEA
:102E60008CFC44EA0C0444F40044A2F8024401E05F
:102E7000012A1BD04A78002A4DD1B3F8502013FA0A
:102E800082F20C7802EBC402B2F80644C4F30904DF
:102E9000A2F806440C69A4B9B2F806446FEA4444A7
:102EA0006FEA5444A4B2A2F8064436E0B3F85020C6
:102EB00013FA82F20C7802EBC4020C8AA2F80244E4
:102EC000D8E73E2C12D84FEA540C14F0010F01D071
:102ED0000CF1010CB2F80644A4B24FEA8C2C1FFA94
:102EE0008CFC44EA0C04A2F8064416E04FEA541C99
:102EF00014F01F0F01D10CF1FF3CB2F80644A4B24C
:102F00004FEA8C2C1FFA8CFC44EA0C0444F4004475
:102F1000A2F8064401E0012A1BD091F800C033F862
:102F20002C2092B222F4804222F0700282F44052AD
:102F300048F28004224323F82C20097833F821201A
:102F400092B222F4E04222F04002224323F82120F0
:102F500010BDB3F8502013FA82F20C7802EBC402D1
:102F60000C8AA2F80644D8E70C7833F8242012F42F
:102F7000804F0CD033F8242092B222F4E04222F0A9
:102F8000700242F4404242F0800223F824200C7880
:102F900033F8242012F0400F0CD033F8242092B2E2
:102FA00022F4E04222F0700242F4004242F0C002F9
:102FB00023F82420CA78012A1ED00C7833F8242064
:102FC00092B222F4E04222F0400282F0200242F467
:102FD000004242F0800223F82420097833F82120AF
:102FE00092B222F4804222F0700242F4004242F097
:102FF000800223F82120ABE70C7833F8242092B22A
:1030000022F4E04222F0400242F4004242F0800208
:1030100023F82420E1E70B7B002B46D14B7813B338
:103020000A7830F8223013F0400F0CD030F82230FC
:103030009BB223F4E04323F0700343F4004343F0D6
:10304000C00320F822300A7830F822309BB223F4F3
:10305000E04323F0400343F4004343F0800320F8AF
:103060002230002070470A7830F8223013F4804F65
:103070000CD030F822309BB223F4E04323F07003ED
:1030800043F4404343F0800320F822300A7830F8BC
:1030900022309BB223F4804323F0700343F40043B7
:1030A00043F0800320F82230DBE74B78002B4ED131
:1030B0000A7830F8223013F4804F0CD030F82230E8
:1030C0009BB223F4E04323F0700343F4404343F006
:1030D000800320F822300A7830F8223013F0400FB5
:1030E0000CD030F822309BB223F4E04323F070037D
:1030F00043F4004343F0C00320F822300A7830F84C
:1031000022309BB223F4E04323F0700343F40043E6
:1031100043F0C00320F822300A7830F822309BB206
:1031200023F4804323F0700348F2800C43EA0C033D
:1031300020F822300A7830F822309BB223F4E043A2
:1031400023F0400343EA0C0320F8223089E70A7891
:1031500030F8223013F4804F0CD030F822309BB27C
:1031600023F4E04323F0700343F4404343F080032F
:1031700020F822300A7830F8223013F0400F0CD0BB
:1031800030F822309BB223F4E04323F0700343F481
:10319000004343F0C00320F822300A7830F8223090
:1031A0009BB223F4E04323F0700343F4404343F025
:1031B000800320F822300A7830F822309BB223F4C2
:1031C000E04323F0400348F2800C43EA0C0320F86C
:1031D00022300A7830F822309BB223F4804323F067
:1031E000700343EA0C0320F822303AE74B788BB1A6
:1031F0000A7830F822309BB223F4E04323F04003F6
:1032000083F0100343F4004343F0800320F822309E
:10321000002070470A7830F822309BB223F48043B4
:1032200023F0700383F4805343F4004343F080039E
:1032300020F82230ECE74B7833B30A7830F82230AC
:1032400013F0400F0CD030F822309BB223F4E0434F
:1032500023F0700343F4004343F0C00320F822300E
:10326000CB78012B33D00A7830F822309BB223F48C
:10327000E04323F0400383F0200343F4004343F092
:10328000800320F8223022E00A7830F8223013F44C
:10329000804F0CD030F822309BB223F4E04323F06F
:1032A000700343F4404343F0800320F822300A784F
:1032B00030F822309BB223F4804323F0700383F470
:1032C000405343F4004343F0800320F822300020B1
:1032D000704711B98023A0F84C3000207047B0F837
:1032E00058306FEA43436FEA53439BB2A0F858301B
:1032F00000207047B0F85830C3F30E03A0F85830E0
:1033000000207047B0F8440080B27047002070473A
:1033100001335B08024402F5806208E0087891F806
:1033200001C040EA0C2022F8020B0231013B002BC5
:10333000F4D1704770B505460C464B78012B1AD076
:103340000B7B002B40F092828B69002B40F0658252
:10335000CB78002B40F061820A7830F822309BB2A3
:1033600023F4E04323F0700343F4014343F080036C
:1033700020F822305FE28E690A69964200D916462B
:10338000217B41B3E178022947D0226A921B226255
:10339000227835F8221011F0400F00F0F681002B52
:1033A00040F0E381B5F8503015FA83F303EBC20225
:1033B000B2F80634C3F30903A2F80634002E40F035
:1033C000B481B2F806346FEA43436FEA53439BB2C9
:1033D000A2F80634D2E1B6B23346E28861692846E3
:1033E000FFF796FFB5F8503015FA83F3227803EB18
:1033F000C203A3F80264227835F822309BB223F48A
:10340000E04323F0400383F0300343F4004343F0F0
:10341000800325F82230002024E2236A9A4280F0BB
:103420006681227835F822309BB223F4E04323F002
:10343000700343F4014343F0800325F82230236AEC
:103440009B1B2362237835F8232012F0400F00F0F5
:10345000A7806278B2BBB5F8502015FA82F202EB71
:10346000C303B3F80624C2F30902A3F806244EB935
:10347000B3F806246FEA42426FEA524292B2A3F8CE
:10348000062421E03E2E0DD8720816F0010F00D060
:103490000132B3F8061489B2920292B20A43A3F839
:1034A000062411E0710916F01F0F00D10139B3F89D
:1034B000062492B2890289B20A4342F40042A3F878
:1034C000062401E0012A29D0B3B262896169284645
:1034D000FFF71EFF636933446361236A22699342E5
:1034E00026D99B1B23626378002B45D1B5F8503059
:1034F00015FA83F3227803EBC203B3F80224C2F374
:103500000902A3F80224BEB9B3F802246FEA4242CA
:103510006FEA524292B2A3F802242FE0B5F850208D
:1035200015FA82F202EBC303B2B2A3F80624CBE78A
:10353000002222621E46D6E73E2E0DD8720816F0F3
:10354000010F00D00132B3F8021489B2920292B294
:103550000A43A3F8022411E0710916F01F0F00D1ED
:103560000139B3F8022492B2890289B20A4342F4C3
:103570000042A3F8022401E0012B06D0B3B2228955
:1035800061692846FFF7C4FE35E7B5F8503015FAF3
:1035900083F3227803EBC203B2B2A3F80224EDE76F
:1035A0006278B2BBB5F8502015FA82F202EBC30381
:1035B000B3F80224C2F30902A3F802244EB9B3F807
:1035C00002246FEA42426FEA524292B2A3F8022406
:1035D00021E03E2E0DD8720816F0010F00D0013206
:1035E000B3F8021489B2920292B20A43A3F80224F9
:1035F00011E0710916F01F0F00D10139B3F8022450
:1036000092B2890289B20A4342F40042A3F802242A
:1036100001E0012A29D0B3B2228961692846FFF767
:1036200077FE636933446361236A2269934226D932
:103630009B1B23626378002B45D1B5F8503015FAF7
:1036400083F3227803EBC203B3F80624C2F3090222
:10365000A3F80624BEB9B3F806246FEA42426FEA23
:10366000524292B2A3F806242FE0B5F8502015FA82
:1036700082F202EBC303B2B2A3F80224CBE700222A
:1036800022621E46D6E73E2E0DD8720816F0010FB4
:1036900000D00132B3F8061489B2920292B20A4302
:1036A000A3F8062411E0710916F01F0F00D10139AB
:1036B000B3F8062492B2890289B20A4342F4004266
:1036C000A3F8062401E0012B06D0B3B26289616938
:1036D0002846FFF71DFE8EE6B5F8503015FA83F345
:1036E000227803EBC203B2B2A3F80624EDE72178F7
:1036F00035F8212092B222F4E24222F0700242F424
:10370000004242F0800225F82120B5F8502015FA39
:1037100082F2217802EBC1029BB2A2F80234228924
:1037200061692846FFF7F4FD65E63E2E0DD8730863
:1037300016F0010F00D00133B2F8061489B29B02D3
:103740009BB20B43A2F8063418E0710916F01F0F64
:1037500000D10139B2F806349BB2890289B20B4319
:1037600043F40043A2F8063408E0B5F8503015FAE7
:1037700083F303EBC203B2B2A3F80624B3B26289A7
:1037800061692846FFF7C4FD35E6B3BBB5F8503094
:1037900015FA83F303EBC202B2F80234C3F3090350
:1037A000A2F802344EB9B2F802346FEA43436FEA2A
:1037B00053439BB2A2F8023428E03E2E0DD8730882
:1037C00016F0010F00D00133B2F8021489B29B0247
:1037D0009BB20B43A2F8023418E0710916F01F0FD8
:1037E00000D10139B2F802349BB2890289B20B438D
:1037F00043F40043A2F8023408E0B5F8503015FA5B
:1038000083F303EBC203B2B2A3F80224B3B222895A
:1038100061692846FFF77CFDEDE5227835F8223016
:103820009BB223F4E24323F0700343F4004343F0DC
:10383000800325F82230A3692269934213D99B1A89
:10384000A361227835F822309BB223F4804323F021
:10385000700383F4405343F4004343F0800325F89E
:103860002230002070BD0023A361EAE7CB78022B51
:1038700004D0012B1ED100238B61E2E7CB69002B22
:10388000DFD00A7830F8221044F2400303EA010046
:103890008B4301D00028D4D135F822309BB223F4D9
:1038A000E04323F0700343F4004343F0C00325F8E2
:1038B0002230C6E70120D5E710B45C08024402F5C7
:1038C000806207E032F8020B0870C0F307204870EE
:1038D0000231013C002CF5D113F0010F01D0138807
:1038E0000B705DF8044B7047104B1B780BB901202F
:1038F000704710B504464FF47A70B0FBF3F30C4AEE
:103900001068B0FBF3F001F067FA68B90F2C01D929
:1039100001200AE0002221464FF0FF3001F048FA72
:10392000044B1C60002000E0012010BD8C00002032
:10393000940000209000002010B5032001F026FA2A
:103940000F20FFF7D1FF10B10124204610BD04461F
:10395000FDF764FAF9E70000034B1B78034A11688E
:103960000B441360704700BF8C000020C817002074
:10397000014B1868704700BFC817002038B50446CF
:10398000FFF7F6FF0546B4F1FF3F02D0044B1B786A
:103990001C44FFF7EDFF401BA042FAD338BD00BF27
:1039A0008C0000204FF0E022136923F00203136122
:1039B00070474FF0E022136943F002031361704730
:1039C00030B583B00446204B9B6D13F0805F0BD065
:1039D00001F0F4F8B0F5007F17D0802C1FD82DD05F
:1039E000702C2DD000211BE0174DAB6D43F08053A0
:1039F000AB65AB6D03F080530193019B01F0DEF8E2
:103A0000AB6D23F08053AB65E4E7802C03D9A02C89
:103A100003D9022104E0002102E0012100E003219A
:103A20000A4A136823F007030B431360136803F07B
:103A300007038B4206D1002003B030BD0221EFE71F
:103A40000121EDE70120F7E70010024000200240CD
:103A5000284A9368D26802F0030213F00C030AD0DC
:103A60000C2B06D0042B1FD0082B20D000200246A0
:103A700010E0012AF6D11F4A126812F0080F0CD18B
:103A80001C4AD2F89420C2F303221B4951F8222089
:103A900043B100200C2B0DD07047164A1268C2F3B8
:103AA0000312F2E71046F5E714480022F2E7144843
:103AB0000022EFE70F4BDB6803F00303022B03D078
:103AC000032B02D10E4A00E00C4A0A49CB68C3F32B
:103AD00002130133C868C0F3062002FB00F0B0FBFC
:103AE000F3F0CB68C3F3416301335B00B0FBF3F049
:103AF000D2E700BF00100240A07D00080024F400BF
:103B000040787D01002800F01C83F0B583B00446A6
:103B1000964B9D6805F00C05DE6806F00306036809
:103B200013F0100F5AD0E5B10C2D18D0A369002B5B
:103B300000F0BB808D4A136843F001031360FFF768
:103B400017FF0746894B1B6813F0020F40F09A805D
:103B5000FFF70EFFC01B0228F4D90320FCE2012E60
:103B6000E4D1824B1B6813F0020F03D0A369002B32
:103B700000F0E982206A7D4B1B6813F0080F5BD0D0
:103B80007A4B1B6803F0F00398425CD8774B1A68B5
:103B900042F008021A601A6822F0F002216A0A4311
:103BA0001A605A6822F47F42E16942EA01225A60AF
:103BB000002D60D0FFF74CFF6C4B9B68C3F30313E1
:103BC0006B4AD35C03F01F03D8406A4B18606A4B02
:103BD0001868FFF789FE002840F0BE82236813F0C2
:103BE000010F00F08180082D75D00C2D71D0636815
:103BF000B3F5803F00F09780B3F5A02F00F09980D7
:103C00005A4B1A6822F480321A601A6822F4802211
:103C10001A606368002B00F09980FFF7A9FE074641
:103C2000524B1B6813F4003F5ED1FFF7A1FEC01B8F
:103C30006428F5D903208FE24C4BD3F894301B094C
:103C400003F0F003A0E7FFF7BBFE002840F07D8201
:103C5000464B1A6842F008021A601A6822F0F00215
:103C6000216A0A431A605A6822F47F42E16942EAF3
:103C700001225A609EE7206AFFF7A2FE002899D031
:103C8000012069E2394B1A6842F008021A601A688A
:103C900022F0F002216A0A431A605A6822F47F4235
:103CA000E16942EA01225A6098E7304A136823F03A
:103CB00001031360FFF75CFE07462C4B1B6813F0F3
:103CC000020F8BD0FFF754FEC01B0228F5D903204A
:103CD00042E2032E8BD1254B1B6813F4003F03D027
:103CE0006368002B00F03382236813F0020F58D072
:103CF000042D45D00C2D41D0E368002B77D01B4A12
:103D0000136843F480731360FFF732FE0646174BC7
:103D10001B6813F4806F61D1FFF72AFE801B022815
:103D2000F5D9032018E2114A136843F48033136075
:103D30006FE703F18043A3F53C331A6842F4802215
:103D40001A601A6842F480321A6062E7FFF710FEC8
:103D50000746064B1B6813F4003FC5D0FFF708FE6B
:103D6000C01B6428F5D90320F6E100BF0010024013
:103D7000D87D00089400002090000020022EBBD1C6
:103D8000A44B1B6813F4806F03D0E368002B00F092
:103D9000E081A04A536823F0F853216943EA0163A4
:103DA0005360236813F0080F4CD063699BB3994AA2
:103DB000D2F8943043F00103C2F89430FFF7D8FDF5
:103DC0000646944BD3F8943013F0020F3AD1FFF724
:103DD000CFFD801B0228F4D90320BDE18D4A536832
:103DE00023F0F853216943EA01635360D9E7894A14
:103DF000136823F480731360FFF7BAFD0646854B02
:103E00001B6813F4806FCCD0FFF7B2FD801B022833
:103E1000F5D90320A0E17F4AD2F8943023F00103C2
:103E2000C2F89430FFF7A4FD06467A4BD3F89430DD
:103E300013F0020F06D0FFF79BFD801B0228F4D978
:103E4000032089E1236813F0040F7AD0714B9B6D36
:103E500013F0805F36D16F4B9A6D42F080529A65B5
:103E60009B6D03F080530193019B01266A4B1B68F5
:103E700013F4807F28D0A368012B39D0052B3FD0C5
:103E8000644BD3F8902022F00102C3F89020D3F8BD
:103E9000902022F00402C3F89020A368002B3DD0AC
:103EA000FFF766FD07465B4BD3F8903013F0020F27
:103EB00046D1FFF75DFDC01B41F288339842F2D92D
:103EC000032049E10026D1E7534A136843F4807385
:103ED0001360FFF74DFD07464F4B1B6813F4807FBF
:103EE000C9D1FFF745FDC01B0228F5D9032033E1F6
:103EF000484AD2F8903043F00103C2F89030CCE742
:103F0000444BD3F8902042F00402C3F89020D3F839
:103F1000902042F00102C3F89020BEE7FFF728FD91
:103F200007463C4BD3F8903013F0020F08D0FFF750
:103F30001FFDC01B41F288339842F2D903200BE1E8
:103F4000E6B9236813F0200F35D0636AE3B1314A34
:103F5000D2F8983043F00103C2F89830FFF708FD1B
:103F600006462C4BD3F8983013F0020F23D1FFF7FD
:103F7000FFFC801B0228F4D90320EDE0254A936D55
:103F800023F080539365DCE7224AD2F8983023F07F
:103F90000103C2F89830FFF7EBFC06461D4BD3F83F
:103FA000983013F0020F06D0FFF7E2FC801B0228C6
:103FB000F4D90320D0E0A36A002B00F0CC80022BC0
:103FC00017D00C2D00F0CC80124A136823F08073B8
:103FD0001360FFF7CDFC04460E4B1B6813F0007F07
:103FE00000F0A880FFF7C4FC001B0228F4D90320CE
:103FF000B2E0084BDB6803F00301E26A91420DD0A6
:104000000C2D00F0AB80034B1B6813F0806F2FD09A
:104010000120A1E0001002400070004003F0700297
:10402000216B0139B2EB011FEAD103F4FE42616B4F
:10403000B2EB012FE4D103F07842A16BB2EBC16F78
:10404000DED103F4C001E26B5208013AB1EB425FEA
:10405000D6D103F0C063226C5208013AB3EB426F31
:10406000CED1404B1B6813F0007F49D0002073E095
:104070003C4A136823F080731360FFF779FC054610
:10408000384B1B6813F0007F06D0FFF771FC401B14
:104090000228F5D903205FE0324AD368324919403B
:1040A000E36A206B013843EA0013606B43EA0023A4
:1040B000E06B4008013843EA4053206C4008013867
:1040C00043EA4063A06B43EAC0631943D1601368BD
:1040D00043F080731360D36843F08073D360FFF7BD
:1040E00047FC04461F4B1B6813F0007F06D1FFF707
:1040F0003FFC001B0228F5D903202DE000202BE017
:10410000184B1A6842F080721A60DA6842F08072C6
:10411000DA60FFF72DFC0446124B1B6813F0007F9A
:1041200006D1FFF725FC031B022BF5D9032013E072
:10413000002011E00B4AD1680C4B0B40D3600020EB
:104140000AE001207047012006E0012004E0012080
:1041500002E0012000E0002003B0F0BD0120FBE7F9
:104160000120F9E7001002408C809D01FCFFEEFE6B
:10417000002800F0AF8070B50D460446594B1B680F
:1041800003F007038B420BD2564A136823F0070350
:104190000B431360136803F007038B4240F09C80CD
:1041A000236813F0020F0CD0A2684F4B9B6803F0FA
:1041B000F0039A4205D94C498B6823F0F0031A4367
:1041C0008A60236813F0010F39D06368032B09D08C
:1041D000022B26D063BB444A126812F0020F06D1AC
:1041E000012076E0404A126812F0007F76D03E4906
:1041F0008A6822F0030213438B60FFF7B9FB06467F
:10420000394B9B6803F00C036268B3EB820F16D046
:10421000FFF7AEFB801B41F288339842F0D90320B0
:1042200057E0314A126812F4003FE0D1012050E01B
:104230002D4A126812F4806FD9D1012049E0236819
:1042400013F0020F0CD0A268274B9B6803F0F00319
:104250009A4205D224498B6823F0F0031A438A60FE
:10426000204B1B6803F00703AB420AD91D4A1368B1
:1042700023F007032B431360136803F00703AB42DB
:104280002ED1236813F0040F06D0174A936823F445
:10429000E063E1680B439360236813F0080F07D0D5
:1042A000114A936823F46053216943EAC103936080
:1042B000FFF7CEFB0C4B9B68C3F303130B4AD35C95
:1042C00003F01F03D8400A4B18600A4B1868FFF729
:1042D0000BFB70BD012070470120FAE70120F8E7D1
:1042E0000120F6E70020024000100240D87D0008BF
:1042F0009400002090000020014B1868704700BF18
:104300009400002008B5FFF7F7FF054B9B68C3F347
:104310000223044AD35C03F01F03D84008BD00BF4A
:1043200000100240D07D000808B5FFF7E5FF054BFF
:104330009B68C3F3C223044AD35C03F01F03D84035
:1043400008BD00BF00100240D07D0008F8B504464B
:104350000D46594BDB6813F0030F18D0564BDB6842
:1043600003F003030268934202D001263046F8BDF1
:10437000002A00F09C80504BDB68C3F3021301332A
:104380004268934201D00126F0E7002619E0036855
:10439000022B55D0032B5AD0012B40F08A80464A7D
:1043A000126812F0020F5ED04348C26822F0730216
:1043B0006168013943EA01131343C3600026002EEC
:1043C000D4D13D4A136823F080631360FFF7D0FA1D
:1043D0000746394B1B6813F0006F05D0FFF7C8FA8A
:1043E000C31B022BF5D90326002EBFD1002D3CD1D3
:1043F00031490B6923F0784323F4FE43A068E26857
:10440000D20642EA002213430B612B4A136843F0A1
:1044100080631360FFF7ACFA0546274B1B6813F067
:10442000006F05D1FFF7A4FA401B0228F5D9032637
:10443000002E9BD1204A1369A1690B43136195E7B4
:104440001D4A126812F4806FAED101268EE71A4A17
:10445000126812F4003FA7D1174A126812F4802F95
:10446000A2D1012682E70126A9E7012D0FD012482B
:10447000026922F0C06222F4FE42A16863695B080F
:10448000013B5B0643EA01231A430261BDE70A4888
:10449000026922F4C00222F4FE42A16823695B088B
:1044A000013B5B0543EA01231A430261ADE70126A4
:1044B0005CE701265AE700BF001002402DE9F041F9
:1044C00082B00446036813F4006F26D0436CB3F542
:1044D000000F06D0B3F5400F1DD09BB10126374623
:1044E0001DE0B14AD36843F48033D3600027AE4A5D
:1044F000D2F8883023F44003616C0B43C2F8883053
:1045000000260CE000210430FFF720FF07460028BA
:10451000EDD0064603E00027E9E70026374623688A
:1045200013F4003F6BD0A04B9B6D13F0805F4CD118
:104530009D4B9A6D42F080529A659B6D03F08053BB
:104540000193019B4FF00108984A136843F480736C
:104550001360FFF70DFA0546944B1B6813F4807F38
:1045600005D1FFF705FA401B0228F5D90327002FD4
:1045700040D18D4BD3F8903013F4407315D0E26DD9
:104580009A4212D0884AD2F8903023F44073D2F87D
:10459000901041F48031C2F89010D2F8901021F4BC
:1045A0008031C2F89010C2F8903013F0010F0FD193
:1045B000002F40F0F7807C4AD2F8903023F440730B
:1045C000E16D0B43C2F8903015E04FF00008BBE7F7
:1045D000FFF7CEF90546744BD3F8903013F0020F75
:1045E000E6D1FFF7C5F9401B41F288339842F2D972
:1045F0000327DDE73E46B8F1000F40F0D98023687D
:1046000013F0010F08D0684AD2F8883023F0030372
:10461000216A0B43C2F88830236813F0020F08D0D8
:10462000614AD2F8883023F00C03616A0B43C2F868
:104630008830236813F0040F08D05B4AD2F8883022
:1046400023F03003A16A0B43C2F88830236813F0CB
:10465000200F08D0544AD2F8883023F44063E16A2E
:104660000B43C2F88830236813F4007F08D04E4A09
:10467000D2F8883023F44023E16B0B43C2F8883032
:10468000236813F4806F08D0474AD2F8883023F4A7
:104690004013216C0B43C2F88830236813F0400F9D
:1046A00008D0414AD2F8883023F44053216B0B43A1
:1046B000C2F88830236813F0800F08D03A4AD2F845
:1046C000883023F44043616B0B43C2F88830236881
:1046D00013F4807F08D0344AD2F8883023F4403372
:1046E000A16B0B43C2F88830236813F4005F0FD02E
:1046F0002D4AD2F8883023F04063A16C0B43C2F8F6
:104700008830A36CB3F1006F58D0B3F1806F5AD0EA
:10471000236813F4002F0FD0234AD2F8883023F0F7
:104720004063E16C0B43C2F88830E36CB3F1006F77
:1047300051D0B3F1806F53D0236813F4802F0FD082
:10474000194AD2F8883023F04063216D0B43C2F838
:104750008830236DB3F1006F4AD0B3F1806F4CD035
:10476000236813F4804F0CD00F4AD2F8883023F01E
:104770004053616D0B43C2F88830636DB3F1805FC5
:1047800043D0236813F4004F08D0074AD2F888308A
:1047900023F08043A16D0B43C2F88830304602B04D
:1047A000BDE8F0813E4626E7001002400070004060
:1047B0001A4A936D23F08053936520E7D36843F43E
:1047C0008013D360A4E70121201DFFF7BFFD00285F
:1047D0009ED006469CE7D36843F48013D360ABE7D2
:1047E0000121201DFFF7B2FD0028A5D00646A3E752
:1047F000D36843F48013D360B2E70121201DFFF793
:10480000A5FD0028ACD00646AAE70221201DFFF72F
:104810009DFD0028B5D00646B3E700BF001002405A
:10482000F0B583B0002362E085685E000324B440E5
:1048300025EA0405CC68B4402C438460456825EA29
:104840000C054C68C4F300149C402C4344605FE0AA
:10485000DD08083550F8254003F0070C4FEA8C0CB2
:104860004FF00F0E0EFA0CFE24EA0E0E0C6904FA3D
:104870000CF444EA0E0440F8254060E0042400E013
:10488000002404FA0EF42C430CF1020C524D45F8AE
:104890002C40524CA568D44325EA02064F6817F411
:1048A000801F01D042EA05064C4DAE60ED6804EA77
:1048B00005064F6817F4001F01D042EA0506474D70
:1048C000EE606D6804EA05064F6817F4003F01D0FA
:1048D00042EA0506414D6E602D682C404E6816F484
:1048E000803F01D042EA05043C4A146001330A6863
:1048F00032FA03F46ED04FF0010C0CFA03FC1CEA00
:104900000202F3D04C6804F00304013C012C8BD963
:104910004C6804F00304032C0CD0C4685D004FF015
:10492000030C0CFA05FC24EA0C0C8C68AC4044EA3D
:104930000C04C4604C6804F00304022C88D00468A2
:104940004FEA430E4FF0030C0CFA0EFC24EA0C0C59
:104950004C6804F0030404FA0EF444EA0C04046006
:104960004C6814F4403FC1D01D4C256E45F0010544
:104970002566246E04F001040194019C4FEA930C17
:104980000CF10205144C54F8255003F0030E4FEAC5
:104990008E0E0F2404FA0EF425EA0405B0F1904FB0
:1049A0003FF46EAF0F4CA0420ED004F58064A042DD
:1049B0000CD004F58064A0420AD004F58064A042C3
:1049C0003FF45CAF07245CE701245AE7022458E770
:1049D000032456E703B0F0BD00000140000401408D
:1049E00000100240000400480AB1816170478162F2
:1049F000704700285FD010B5044690F84130002B76
:104A000048D0242384F841302268136823F001033E
:104A100013606368226823F07063136122689368EF
:104A200023F400439360E368012B38D0A368226825
:104A300043F404439360E368022B36D02268536842
:104A400023F4006353602268536843F0007343F417
:104A5000004353602268D36823F40043D360236982
:104A600062691343A169226843EA0123D360E369C1
:104A7000216A22680B4313602268136843F0010324
:104A8000136000206064202384F84130206384F8A0
:104A9000420010BD80F84030FCF73CFAB1E7A36853
:104AA000226843F400439360C5E72268536843F4E7
:104AB00000635360C7E701207047034690F8412028
:104AC000D2B2202A23D190F84020012A21D00122FD
:104AD00080F84020242280F841200068026822F0FB
:104AE000010202601868026822F4805202601868AD
:104AF00002681143016019680A6842F001020A6005
:104B0000202283F84120002083F8400070470220D3
:104B1000704702207047034690F84120D2B2202A05
:104B200021D190F84020012A1FD0012280F8402096
:104B3000242280F841200068026822F0010202600D
:104B40001868026822F4706242EA01220260196861
:104B50000A6842F001020A60202283F84120002006
:104B600083F8400070470220704702207047000021
:104B700010B50C46A0B90F4B5B6913F4007F0AD146
:104B80000D4A136923F004031361012C10D040BFB8
:104B900020BF20BF10BD00F071F80028F0D0F9E769
:104BA000044B5B6913F4007FEAD100F05FF8E7E79C
:104BB00030BFEFE70070004000ED00E0024B1868E6
:104BC00000F4C060704700BF00700040B0F5007F87
:104BD0000FD01F4B1B6803F4C063B3F5806F34D054
:104BE0001B4A136823F4C06343F4806313600020FE
:104BF0007047174B1B6803F4C063B3F5007F20D0E8
:104C0000134A136823F4C06343F400731360114B19
:104C10001B68322202FB03F30F4AA2FB03239B0C07
:104C2000013300E0013B0A4A526912F4806F01D05F
:104C3000002BF7D1064B5B6913F4806F03D1002082
:104C4000704700207047032070470020704700BF66
:104C5000007000409400002083DE1B43024A53682A
:104C600043F480635360704700700040024A136849
:104C700043F480431360704700700040104A13688B
:104C800023F4804313600F4B1B68322202FB03F3B3
:104C90000D4AA2FB03239B0C013300E0013B084AB1
:104CA000526912F4007F01D0002BF7D1044B5B69ED
:104CB00013F4007F01D1002070470320704700BF2C
:104CC000007000409400002083DE1B430C4A1368F0
:104CD00023F0070343F0020313600A4A136943F009
:104CE00004031361012808D040BF20BF20BF054A3C
:104CF000136923F004031361704730BFF7E700BF67
:104D00000070004000ED00E0002807DB00F01F020B
:104D1000400901239340024A42F82030704700BF07
:104D200000E100E0002808DB0901C9B200F16040A1
:104D300000F5614080F80013704700F00F00090192
:104D4000C9B2014B1954704714ED00E000B500F0F2
:104D50000700C0F1070CBCF1040F28BF4FF0040C92
:104D6000031D062B0FD9C31E4FF0FF3E0EFA0CF0A9
:104D700021EA000199400EFA03FE22EA0E0241EAFE
:104D800002005DF804FB0023EEE70000074AD36849
:104D900023F4E0631B041B0C000200F4E0600343F7
:104DA00043F0BF6343F40033D360704700ED00E08D
:104DB00010B50446054BD868C0F30220FFF7C6FFC4
:104DC00001462046FFF7AEFF10BD00BF00ED00E03A
:104DD00008B5FFF799FF08BD0138B0F1807F0BD20D
:104DE0004FF0E0235861054AF02182F8231000209B
:104DF000986107221A6170470120704700ED00E0BA
:104E000010B430300B0A9B0003F00C03C45801F0BF
:104E10001F014FF01F0C0CFA01FC24EA0C0CC2F32A
:104E200084628A404CEA0202C2505DF8044B70472B
:104E300010B414304B0E9B0003F00403C458C1F3AC
:104E400004514FF0070C0CFA01FC24EA0C0C8A40C8
:104E50004CEA0202C2505DF8044B704730B583B093
:104E600000230193002800F0D0800446436D13B363
:104E700023689A6812F0005F05D09A6822F02042F9
:104E800022F03F029A602268936813F0805F1FD17E
:104E9000936823F0104323F03F0343F08053936063
:104EA0005B4B1B689B095B4AA2FB03239B090133F5
:104EB0005B00019309E0FBF7C9FF0023A36584F8B9
:104EC0005030D5E7019B013B0193019B002BF9D1A9
:104ED0002268936813F0805F70D1636D43F0100314
:104EE0006365A36D43F00103A3650120936813F08C
:104EF000040300D00123616D11F0100F7ED1002B4F
:104F00007CD1636D23F4817343F00203636593687E
:104F100013F0010F0BD1404B9B6813F0010F06D12A
:104F200063683E498A6822F47C1213438B60627E78
:104F3000636B43EA4233E2681343A268134394F875
:104F4000202043EA0243012A3AD0A26A22B102F4A5
:104F50007072E16A0A4313432168CD68304A2A40DF
:104F60001A43CA602268936813F0080300D0012333
:104F7000ABB9237E94F83010490041EA8331D368FD
:104F800023F4804323F002030B43D36094F83830BA
:104F9000012B1AD02268136923F0010313612369DE
:104FA000012B22D02268136B23F00F031363636D70
:104FB00023F0030343F00103636524E0002095E739
:104FC000626A013A43EA4243BFE721680B696FF323
:104FD0008A03E26B256C2A43656C2A43A56C2A433D
:104FE000134343F001030B61D9E721680B6B23F0F6
:104FF0000F03E269013A13430B63D8E7636D43F093
:1050000010036365012003B030BD0120FBE700BF42
:1050100094000020632D3E0500000450000304505E
:1050200007C0F0FFF0B583B00023019390F8503033
:10503000012B00F0048204460D46012380F8503015
:105040000068836813F0040F09D0636D43F02003F8
:1050500063650120002384F8503003B0F0BD496837
:10506000052907D8023903294ED8DFE801F0024F9D
:10507000484A0C212A68FFF7C3FE2068836813F0B2
:10508000040300D00123826812F0080200D001223C
:105090000BB9002A3CD02268936813F0010F17D196
:1050A0002B68E868D2F8B010C3F3120621EA0601B3
:1050B00000F0180CA84820FA0CF00340C3F31203C8
:1050C0000B43C2F8B030EA68A44B9A4200F0A580C6
:1050D0002B68A34A134200F0AE81A24A926802F004
:1050E000E070A1498B4200F05881A0498B4200F04A
:1050F0007B819F498B4200F08B810020AAE7182119
:10510000B8E74FF48071B5E70621B3E71221B1E7A4
:10511000AA682968FFF78CFE69692268D368C3F31F
:10512000C1035B009940286904280ED02E686032C4
:1051300052F820708F4B3B4006F0F84631430B434A
:1051400043F0004342F82030A5E7136E116EC1F31F
:1051500084612B68C3F3120080BBC3F3846399425C
:1051600034D021684B6E4A6EC2F384622B68C3F35D
:10517000120080BBC3F384639A4234D021688B6EE3
:105180008A6EC2F384622B68C3F3120080BBC3F340
:1051900084639A4234D02168CB6ECA6EC2F38462B3
:1051A0002B68C3F3120080BBC3F384639A427FF47D
:1051B00072AFCB6E23F00043CB666CE793FAA3F398
:1051C00013B1B3FA83F3CAE72023C8E7136E23F0C1
:1051D00000431366C5E793FAA3F313B1B3FA83F35D
:1051E000CAE72023C8E74B6E23F000434B66C5E7B0
:1051F00093FAA3F313B1B3FA83F3CAE72023C8E702
:105200008B6E23F000438B66C5E793FAA3F313B1CB
:10521000B3FA83F3CAE72023C8E720682B68C3F3F7
:1052200012063EBB9A0E013202F01F02092A8CBF01
:1052300000220122002A55D05EBB990E0131890659
:1052400001F0F8418EBB4FEA936C0CF1010C0CF0AD
:105250001F0C012202FA0CF21143AEBB9B0E01336C
:1052600003F01F0303EB43031B051943AA68FFF771
:10527000DFFD2DE793FAA3F24AB1B2FA82F20132CE
:1052800002F01F02092A8CBF00220122D2E720224D
:10529000F5E793FAA3F131B1B1FA81F10131890651
:1052A00001F0F841CEE72021F8E793FAA3F24AB1E2
:1052B000B2FA82F2013202F01F024FF0010C0CFA36
:1052C00002F2C9E72022F5E793FAA3F343B1B3FA58
:1052D00083F3013303F01F0303EB43031B05C4E710
:1052E0002023F6E7E6B9990E0131890601F0F8416D
:1052F00016BB4FEA936C0CF1010C0CF01F0C012251
:1053000002FA0CF21143BEBB9B0E013303F01F03E4
:1053100003EB43031E3B1B0543F000731943A5E752
:1053200093FAA3F131B1B1FA81F10131890601F0AB
:10533000F841DDE72021F8E793FAA3F24AB1B2FA87
:1053400082F2013202F01F024FF0010C0CFA02F25D
:10535000D8E72022F5E700BFFFFF070000007F40ED
:105360000000088000030450000052C7000084CBF6
:105370000100008000F0FF0393FAA3F35BB1B3FADE
:1053800083F3013303F01F0303EB43031E3B1B05B1
:1053900043F00073C2E72023F3E712F4000F7FF419
:1053A000A4AE2268274B9A4201D0002052E640F476
:1053B000000325498A6822F0E07213438B60234B77
:1053C0001B689B09224AA2FB03239B09013303EBC1
:1053D00043039B00019302E0019B013B0193019B6E
:1053E000002BF9D1002035E612F0807F7FF481AEEA
:1053F0002268144B9A4201D000202BE640F08073C3
:1054000011498A6822F0E07213438B60002021E684
:1054100012F4800F11D122680A4B9A4201D0002069
:1054200018E640F4800308498A6822F0E0721343CA
:105430008B6000200EE600200CE600200AE6022029
:105440000BE600BF0000045000030450940000204D
:10545000632D3E05002831D038B5044603684CF66C
:10546000CC421A60036845F255521A6003684268DC
:105470005A60036882689A60FEF77AFA05462368E4
:10548000DA6812F0070F0DD0FEF772FA401B41F6F2
:1054900001039842F3D92368DB6813F0070FEED0BD
:1054A000032005E01969E268914202D01A610020E8
:1054B00038BD4AF6AA221A600020F9E70120704799
:1054C00084460C4B1B680C4AA2FB03239B0B4FF436
:1054D0007A7202FB03F3002006E0DCF80020126879
:1054E00031EA020204D01BB1013BF6D10320F4E7FC
:1054F000704700BF940000205917B7D1002854D03E
:10550000F8B5044690F83630002B44D0022384F8D6
:1055100036302568EB686168012903D0A26AB2F5CC
:10552000000F01D123F01E0362694FF6FF70824223
:1055300003D023F4604323F0C0031D481840A36840
:105540000B43266A3343666A3343A66A33430343F5
:1055500019B9E069276938430343012902D0B6F538
:10556000000F03D1E168206901430B434FF6FF713F
:105570008A4204D0A1690A43E1690A431343EB60FC
:1055800023680C4A93420BD0E26A1A62012384F822
:1055900036300020F8BD80F83530FBF731FDB5E737
:1055A000E26A216B0A431A62F0E70120704700BFEC
:1055B000FEF119FF007C004070477047704770474C
:1055C0007047704710B5044603681A6812F0010F5F
:1055D00003D09A6812F0010F36D123681A6812F0CE
:1055E000020F03D09A6812F0020F32D123681A68B2
:1055F00012F0040F03D09A6812F0040F2FD1236821
:105600001A6812F0080F03D09A6812F0080F2CD114
:1056100023681A6812F0100F03D09A6812F0100F66
:1056200029D123681A6812F0200F03D09A6812F06B
:10563000200F26D123681A6812F0400F03D09A6811
:1056400012F0400F23D110BD01225A60FFF7B4FFC2
:10565000C3E702225A602046FBF7A2F8C6E70422FD
:105660005A602046FFF7A9FFC9E708225A60204682
:10567000FFF7A4FFCCE710225A602046FFF79FFFF8
:10568000CFE720225A602046FFF79AFFD2E7402258
:105690005A602046FFF795FFD5E790F8360070472F
:1056A0002DE9F0470446EFF31085012383F31088BA
:1056B0000368554A934206D002F5C05293421FD068
:1056C0004FF0000904E0514AD2F8882002F4402942
:1056D000D3F80880DF685A69D3F818A01E6A4A49CF
:1056E0008B4213D001F5C0518B4218D1474BD96B77
:1056F00041F02001D963D96B21F02001D9630EE07C
:10570000424AD2F8882002F44019E1E73F4B996BF6
:1057100041F000419963996B21F00041996312B9FE
:10572000BAF1000F60D0236837498B420BD001F5E6
:10573000C0518B420ED13549D1F8883023F4401343
:10574000C1F8883006E03149D1F8883023F440238D
:10575000C1F88830A2B9BAF1000F26D123682A4ACD
:10576000934238D002F5C05293423DD1274AD2F835
:10577000883023F4401343EA0903C2F8883033E049
:1057800021680B6943F001030B6123685A6108210A
:105790002046FFF795FE032803D0236808225A60AD
:1057A000D9E7032384F83630F7E72268136943F01A
:1057B000010313612368C3F818A010212046FFF7E6
:1057C0007FFE032803D0236810225A60C6E7032314
:1057D00084F83630F7E70D4AD2F8883023F44023B6
:1057E00043EA0903C2F888302268136923F00103F1
:1057F00013612368C3F808802368DF6023681E6292
:1058000085F31088BDE8F087007C0040001002405E
:1058100010B504460B46022280F836200168254A5E
:1058200091423BD024490A6A42F002020A6262684D
:10583000012A03D0A26AB2F5000F35D021680A69A7
:1058400042F001020A6122681021516022689361CE
:105850002046FFF735FE03281FD02046FFF720FF24
:105860002046FFF71AFF032817D02268936843F0F9
:10587000100393602268936843F0020393602268E8
:10588000136943F0010313612268136943F00403B1
:105890001361012384F83630002010BD06490A6ADE
:1058A00042F001020A62C2E72168CA6822F460621B
:1058B000CA60C3E7007C00400004014010B5044604
:1058C0000268144B9A421ED0134A136A23F0020353
:1058D0001362022384F836302046FFF7E1FE2046AB
:1058E000FFF7DBFE03280DD02268936823F0100336
:1058F00093602268936823F002039360012384F885
:105900003630002010BD044A136A23F001031362ED
:10591000DFE700BF007C004000040140026852E85D
:10592000003F23F4907342E800310029F6D1026869
:1059300002F1080353E8003F23F00103083242E874
:1059400000310029F3D1036E012B06D02023C0F8CB
:1059500080300023036683667047026852E8003F88
:1059600023F0100342E800310029F6D1EEE70000F1
:1059700010B5044683680269134342691343C26940
:10598000134301680868954A02401A430A60226876
:10599000536823F44053E1680B435360A1692268C4
:1059A0008F4B9A4201D0236A1943936823F43063E2
:1059B0000B43936023688B4A93421FD08A4A9342D9
:1059C00030D08A4A934246D0854A934255D010221D
:1059D00083498B427AD0E069B0F5004F00F0A68091
:1059E000082A00F20F81DFE812F0CE00E500CC00BB
:1059F0000D01E8000D010D010D01EB0002F558420B
:105A0000D2F8882002F00302032A09D8DFE802F066
:105A100002044A060122DBE70422D9E70822D7E77D
:105A20001022D5E702F5E632D2F8882002F00C0207
:105A30000C2A0ED8DFE802F0070D0D0D090D0D0D33
:105A4000380D0D0D0B000022C2E70422C0E708222A
:105A5000BEE71022BCE702F5E432D2F8882002F05B
:105A60003002202A22D004D812B3102A22D10422D4
:105A7000AEE7302A20D10822AAE702F5C832D2F8D0
:105A8000882002F44062B2F5006F17D005D8BAB191
:105A9000B2F5806F16D104229AE7B2F5406F13D1A8
:105AA000082295E7022293E7022291E702228FE77C
:105AB00000228DE710228BE7102289E7022287E778
:105AC000002285E7102283E7102281E7082A7AD88E
:105AD000DFE802F008792A792779797905004FF40F
